{
  "_format": "hh-sol-artifact-1",
  "contractName": "Transactions",
  "sourceName": "contracts/Transactions.sol",
  "abi": [
    {
      "anonymous": false,
      "inputs": [
        {
          "indexed": false,
          "internalType": "address",
          "name": "form",
          "type": "address"
        },
        {
          "indexed": false,
          "internalType": "string",
          "name": "senderName",
          "type": "string"
        },
        {
          "indexed": false,
          "internalType": "address",
          "name": "receiver",
          "type": "address"
        },
        {
          "indexed": false,
          "internalType": "string",
          "name": "receiverName",
          "type": "string"
        },
        {
          "indexed": false,
          "internalType": "uint256",
          "name": "amount",
          "type": "uint256"
        },
        {
          "indexed": false,
          "internalType": "string",
          "name": "message",
          "type": "string"
        },
        {
          "indexed": false,
          "internalType": "uint256",
          "name": "timestamp",
          "type": "uint256"
        },
        {
          "indexed": false,
          "internalType": "bytes32",
          "name": "blockChainId",
          "type": "bytes32"
        },
        {
          "indexed": false,
          "internalType": "uint256",
          "name": "blockNumber",
          "type": "uint256"
        }
      ],
      "name": "Transfer",
      "type": "event"
    },
    {
      "inputs": [
        {
          "internalType": "string",
          "name": "senderName",
          "type": "string"
        },
        {
          "internalType": "address payable",
          "name": "receiver",
          "type": "address"
        },
        {
          "internalType": "string",
          "name": "receiverName",
          "type": "string"
        },
        {
          "internalType": "uint256",
          "name": "amount",
          "type": "uint256"
        },
        {
          "internalType": "string",
          "name": "messsage",
          "type": "string"
        }
      ],
      "name": "addToBlockchain",
      "outputs": [],
      "stateMutability": "nonpayable",
      "type": "function"
    },
    {
      "inputs": [],
      "name": "getAllTransactions",
      "outputs": [
        {
          "components": [
            {
              "internalType": "address",
              "name": "sender",
              "type": "address"
            },
            {
              "internalType": "string",
              "name": "senderName",
              "type": "string"
            },
            {
              "internalType": "address",
              "name": "receiver",
              "type": "address"
            },
            {
              "internalType": "string",
              "name": "receiverName",
              "type": "string"
            },
            {
              "internalType": "uint256",
              "name": "amount",
              "type": "uint256"
            },
            {
              "internalType": "string",
              "name": "message",
              "type": "string"
            },
            {
              "internalType": "uint256",
              "name": "timestamp",
              "type": "uint256"
            },
            {
              "internalType": "bytes32",
              "name": "blockChainId",
              "type": "bytes32"
            },
            {
              "internalType": "uint256",
              "name": "blockNumber",
              "type": "uint256"
            }
          ],
          "internalType": "struct Transactions.TransferStruct[]",
          "name": "",
          "type": "tuple[]"
        }
      ],
      "stateMutability": "view",
      "type": "function"
    },
    {
      "inputs": [],
      "name": "getTransactionCount",
      "outputs": [
        {
          "internalType": "uint256",
          "name": "",
          "type": "uint256"
        }
      ],
      "stateMutability": "view",
      "type": "function"
    }
  ],
  "bytecode": "0x60806040526000805534801561001457600080fd5b50610dcc806100246000396000f3fe608060405234801561001057600080fd5b50600436106100415760003560e01c806327506f53146100465780632e7700f0146100645780638fab1eff14610082575b600080fd5b61004e61009e565b60405161005b9190610a6e565b60405180910390f35b61006c610388565b6040516100799190610a90565b60405180910390f35b61009c600480360381019061009791906106d6565b610391565b005b60606001805480602002602001604051908101604052809291908181526020016000905b8282101561037f5783829060005260206000209060090201604051806101200160405290816000820160009054906101000a900473ffffffffffffffffffffffffffffffffffffffff1673ffffffffffffffffffffffffffffffffffffffff1673ffffffffffffffffffffffffffffffffffffffff16815260200160018201805461014c90610c98565b80601f016020809104026020016040519081016040528092919081815260200182805461017890610c98565b80156101c55780601f1061019a576101008083540402835291602001916101c5565b820191906000526020600020905b8154815290600101906020018083116101a857829003601f168201915b505050505081526020016002820160009054906101000a900473ffffffffffffffffffffffffffffffffffffffff1673ffffffffffffffffffffffffffffffffffffffff1673ffffffffffffffffffffffffffffffffffffffff16815260200160038201805461023490610c98565b80601f016020809104026020016040519081016040528092919081815260200182805461026090610c98565b80156102ad5780601f10610282576101008083540402835291602001916102ad565b820191906000526020600020905b81548152906001019060200180831161029057829003601f168201915b50505050508152602001600482015481526020016005820180546102d090610c98565b80601f01602080910402602001604051908101604052809291908181526020018280546102fc90610c98565b80156103495780601f1061031e57610100808354040283529160200191610349565b820191906000526020600020905b81548152906001019060200180831161032c57829003601f168201915b505050505081526020016006820154815260200160078201548152602001600882015481525050815260200190600101906100c2565b50505050905090565b60008054905090565b60016000546103a09190610b72565b60008190555060016040518061012001604052803373ffffffffffffffffffffffffffffffffffffffff1681526020018781526020018673ffffffffffffffffffffffffffffffffffffffff16815260200185815260200184815260200183815260200142815260200160005440815260200143815250908060018154018082558091505060019003906000526020600020906009020160009091909190915060008201518160000160006101000a81548173ffffffffffffffffffffffffffffffffffffffff021916908373ffffffffffffffffffffffffffffffffffffffff16021790555060208201518160010190805190602001906104a39291906105a1565b5060408201518160020160006101000a81548173ffffffffffffffffffffffffffffffffffffffff021916908373ffffffffffffffffffffffffffffffffffffffff16021790555060608201518160030190805190602001906105079291906105a1565b506080820151816004015560a082015181600501908051906020019061052e9291906105a1565b5060c0820151816006015560e08201518160070155610100820151816008015550507f48b8d3597a3ae8f2c8b00eb282efac709a9f084d064e90c44b030c2d67987880338686868686426000544043604051610592999897969594939291906109cc565b60405180910390a15050505050565b8280546105ad90610c98565b90600052602060002090601f0160209004810192826105cf5760008555610616565b82601f106105e857805160ff1916838001178555610616565b82800160010185558215610616579182015b828111156106155782518255916020019190600101906105fa565b5b5090506106239190610627565b5090565b5b80821115610640576000816000905550600101610628565b5090565b600061065761065284610adc565b610aab565b90508281526020810184848401111561066f57600080fd5b61067a848285610c56565b509392505050565b60008135905061069181610d68565b92915050565b600082601f8301126106a857600080fd5b81356106b8848260208601610644565b91505092915050565b6000813590506106d081610d7f565b92915050565b600080600080600060a086880312156106ee57600080fd5b600086013567ffffffffffffffff81111561070857600080fd5b61071488828901610697565b955050602061072588828901610682565b945050604086013567ffffffffffffffff81111561074257600080fd5b61074e88828901610697565b935050606061075f888289016106c1565b925050608086013567ffffffffffffffff81111561077c57600080fd5b61078888828901610697565b9150509295509295909350565b60006107a183836108db565b905092915050565b6107b281610c20565b82525050565b6107c181610bc8565b82525050565b6107d081610bc8565b82525050565b60006107e182610b1c565b6107eb8185610b3f565b9350836020820285016107fd85610b0c565b8060005b85811015610839578484038952815161081a8582610795565b945061082583610b32565b925060208a01995050600181019050610801565b50829750879550505050505092915050565b61085481610bec565b82525050565b61086381610bec565b82525050565b600061087482610b27565b61087e8185610b50565b935061088e818560208601610c65565b61089781610d57565b840191505092915050565b60006108ad82610b27565b6108b78185610b61565b93506108c7818560208601610c65565b6108d081610d57565b840191505092915050565b6000610120830160008301516108f460008601826107b8565b506020830151848203602086015261090c8282610869565b915050604083015161092160408601826107b8565b50606083015184820360608601526109398282610869565b915050608083015161094e60808601826109ae565b5060a083015184820360a08601526109668282610869565b91505060c083015161097b60c08601826109ae565b5060e083015161098e60e086018261084b565b506101008301516109a36101008601826109ae565b508091505092915050565b6109b781610c16565b82525050565b6109c681610c16565b82525050565b6000610120820190506109e2600083018c6107c7565b81810360208301526109f4818b6108a2565b9050610a03604083018a6107a9565b8181036060830152610a1581896108a2565b9050610a2460808301886109bd565b81810360a0830152610a3681876108a2565b9050610a4560c08301866109bd565b610a5260e083018561085a565b610a606101008301846109bd565b9a9950505050505050505050565b60006020820190508181036000830152610a8881846107d6565b905092915050565b6000602082019050610aa560008301846109bd565b92915050565b6000604051905081810181811067ffffffffffffffff82111715610ad257610ad1610d28565b5b8060405250919050565b600067ffffffffffffffff821115610af757610af6610d28565b5b601f19601f8301169050602081019050919050565b6000819050602082019050919050565b600081519050919050565b600081519050919050565b6000602082019050919050565b600082825260208201905092915050565b600082825260208201905092915050565b600082825260208201905092915050565b6000610b7d82610c16565b9150610b8883610c16565b9250827fffffffffffffffffffffffffffffffffffffffffffffffffffffffffffffffff03821115610bbd57610bbc610cca565b5b828201905092915050565b6000610bd382610bf6565b9050919050565b6000610be582610bf6565b9050919050565b6000819050919050565b600073ffffffffffffffffffffffffffffffffffffffff82169050919050565b6000819050919050565b6000610c2b82610c32565b9050919050565b6000610c3d82610c44565b9050919050565b6000610c4f82610bf6565b9050919050565b82818337600083830152505050565b60005b83811015610c83578082015181840152602081019050610c68565b83811115610c92576000848401525b50505050565b60006002820490506001821680610cb057607f821691505b60208210811415610cc457610cc3610cf9565b5b50919050565b7f4e487b7100000000000000000000000000000000000000000000000000000000600052601160045260246000fd5b7f4e487b7100000000000000000000000000000000000000000000000000000000600052602260045260246000fd5b7f4e487b7100000000000000000000000000000000000000000000000000000000600052604160045260246000fd5b6000601f19601f8301169050919050565b610d7181610bda565b8114610d7c57600080fd5b50565b610d8881610c16565b8114610d9357600080fd5b5056fea264697066735822122001e764ee558767ab0e669cbee9e0d35f76b3b4c903b88f2399937b11270a893e64736f6c63430008000033",
  "linkReferences": {},
  "deployedLinkReferences": {}
}