{
  "_format": "hh-sol-artifact-1",
  "contractName": "Transactions",
  "sourceName": "contracts/Transactions.sol",
  "abi": [
    {
      "anonymous": false,
      "inputs": [
        {
          "indexed": false,
          "internalType": "address",
          "name": "form",
          "type": "address"
        },
        {
          "indexed": false,
          "internalType": "string",
          "name": "senderName",
          "type": "string"
        },
        {
          "indexed": false,
          "internalType": "address",
          "name": "receiver",
          "type": "address"
        },
        {
          "indexed": false,
          "internalType": "string",
          "name": "receiverName",
          "type": "string"
        },
        {
          "indexed": false,
          "internalType": "uint256",
          "name": "amount",
          "type": "uint256"
        },
        {
          "indexed": false,
          "internalType": "string",
          "name": "message",
          "type": "string"
        },
        {
          "indexed": false,
          "internalType": "uint256",
          "name": "timestamp",
          "type": "uint256"
        }
      ],
      "name": "Transfer",
      "type": "event"
    },
    {
      "inputs": [
        {
          "internalType": "string",
          "name": "senderName",
          "type": "string"
        },
        {
          "internalType": "address payable",
          "name": "receiver",
          "type": "address"
        },
        {
          "internalType": "string",
          "name": "receiverName",
          "type": "string"
        },
        {
          "internalType": "uint256",
          "name": "amount",
          "type": "uint256"
        },
        {
          "internalType": "string",
          "name": "messsage",
          "type": "string"
        }
      ],
      "name": "addToBlockchain",
      "outputs": [],
      "stateMutability": "nonpayable",
      "type": "function"
    },
    {
      "inputs": [],
      "name": "getAllTransactions",
      "outputs": [
        {
          "components": [
            {
              "internalType": "address",
              "name": "sender",
              "type": "address"
            },
            {
              "internalType": "string",
              "name": "senderName",
              "type": "string"
            },
            {
              "internalType": "address",
              "name": "receiver",
              "type": "address"
            },
            {
              "internalType": "string",
              "name": "receiverName",
              "type": "string"
            },
            {
              "internalType": "uint256",
              "name": "amount",
              "type": "uint256"
            },
            {
              "internalType": "string",
              "name": "message",
              "type": "string"
            },
            {
              "internalType": "uint256",
              "name": "timestamp",
              "type": "uint256"
            }
          ],
          "internalType": "struct Transactions.TransferStruct[]",
          "name": "",
          "type": "tuple[]"
        }
      ],
      "stateMutability": "view",
      "type": "function"
    },
    {
      "inputs": [],
      "name": "getTransactionCount",
      "outputs": [
        {
          "internalType": "uint256",
          "name": "",
          "type": "uint256"
        }
      ],
      "stateMutability": "view",
      "type": "function"
    }
  ],
  "bytecode": "0x60806040526000805534801561001457600080fd5b50610d1c806100246000396000f3fe608060405234801561001057600080fd5b50600436106100415760003560e01c806327506f53146100465780632e7700f0146100645780638fab1eff14610082575b600080fd5b61004e61009e565b60405161005b91906109c8565b60405180910390f35b61006c610373565b60405161007991906109ea565b60405180910390f35b61009c60048036038101906100979190610695565b61037c565b005b60606001805480602002602001604051908101604052809291908181526020016000905b8282101561036a57838290600052602060002090600702016040518060e00160405290816000820160009054906101000a900473ffffffffffffffffffffffffffffffffffffffff1673ffffffffffffffffffffffffffffffffffffffff1673ffffffffffffffffffffffffffffffffffffffff16815260200160018201805461014b90610be8565b80601f016020809104026020016040519081016040528092919081815260200182805461017790610be8565b80156101c45780601f10610199576101008083540402835291602001916101c4565b820191906000526020600020905b8154815290600101906020018083116101a757829003601f168201915b505050505081526020016002820160009054906101000a900473ffffffffffffffffffffffffffffffffffffffff1673ffffffffffffffffffffffffffffffffffffffff1673ffffffffffffffffffffffffffffffffffffffff16815260200160038201805461023390610be8565b80601f016020809104026020016040519081016040528092919081815260200182805461025f90610be8565b80156102ac5780601f10610281576101008083540402835291602001916102ac565b820191906000526020600020905b81548152906001019060200180831161028f57829003601f168201915b50505050508152602001600482015481526020016005820180546102cf90610be8565b80601f01602080910402602001604051908101604052809291908181526020018280546102fb90610be8565b80156103485780601f1061031d57610100808354040283529160200191610348565b820191906000526020600020905b81548152906001019060200180831161032b57829003601f168201915b50505050508152602001600682015481525050815260200190600101906100c2565b50505050905090565b60008054905090565b600160005461038b9190610acc565b60008190555060016040518060e001604052803373ffffffffffffffffffffffffffffffffffffffff1681526020018781526020018673ffffffffffffffffffffffffffffffffffffffff16815260200185815260200184815260200183815260200142815250908060018154018082558091505060019003906000526020600020906007020160009091909190915060008201518160000160006101000a81548173ffffffffffffffffffffffffffffffffffffffff021916908373ffffffffffffffffffffffffffffffffffffffff160217905550602082015181600101908051906020019061047e929190610560565b5060408201518160020160006101000a81548173ffffffffffffffffffffffffffffffffffffffff021916908373ffffffffffffffffffffffffffffffffffffffff16021790555060608201518160030190805190602001906104e2929190610560565b506080820151816004015560a0820151816005019080519060200190610509929190610560565b5060c0820151816006015550507f18e1ec2a11ce29140e765394fe300f2aa5cc919a361f6308780e6ffe3dd18a0f338686868686426040516105519796959493929190610944565b60405180910390a15050505050565b82805461056c90610be8565b90600052602060002090601f01602090048101928261058e57600085556105d5565b82601f106105a757805160ff19168380011785556105d5565b828001600101855582156105d5579182015b828111156105d45782518255916020019190600101906105b9565b5b5090506105e291906105e6565b5090565b5b808211156105ff5760008160009055506001016105e7565b5090565b600061061661061184610a36565b610a05565b90508281526020810184848401111561062e57600080fd5b610639848285610ba6565b509392505050565b60008135905061065081610cb8565b92915050565b600082601f83011261066757600080fd5b8135610677848260208601610603565b91505092915050565b60008135905061068f81610ccf565b92915050565b600080600080600060a086880312156106ad57600080fd5b600086013567ffffffffffffffff8111156106c757600080fd5b6106d388828901610656565b95505060206106e488828901610641565b945050604086013567ffffffffffffffff81111561070157600080fd5b61070d88828901610656565b935050606061071e88828901610680565b925050608086013567ffffffffffffffff81111561073b57600080fd5b61074788828901610656565b9150509295509295909350565b6000610760838361087c565b905092915050565b61077181610b70565b82525050565b61078081610b22565b82525050565b61078f81610b22565b82525050565b60006107a082610a76565b6107aa8185610a99565b9350836020820285016107bc85610a66565b8060005b858110156107f857848403895281516107d98582610754565b94506107e483610a8c565b925060208a019950506001810190506107c0565b50829750879550505050505092915050565b600061081582610a81565b61081f8185610aaa565b935061082f818560208601610bb5565b61083881610ca7565b840191505092915050565b600061084e82610a81565b6108588185610abb565b9350610868818560208601610bb5565b61087181610ca7565b840191505092915050565b600060e0830160008301516108946000860182610777565b50602083015184820360208601526108ac828261080a565b91505060408301516108c16040860182610777565b50606083015184820360608601526108d9828261080a565b91505060808301516108ee6080860182610926565b5060a083015184820360a0860152610906828261080a565b91505060c083015161091b60c0860182610926565b508091505092915050565b61092f81610b66565b82525050565b61093e81610b66565b82525050565b600060e082019050610959600083018a610786565b818103602083015261096b8189610843565b905061097a6040830188610768565b818103606083015261098c8187610843565b905061099b6080830186610935565b81810360a08301526109ad8185610843565b90506109bc60c0830184610935565b98975050505050505050565b600060208201905081810360008301526109e28184610795565b905092915050565b60006020820190506109ff6000830184610935565b92915050565b6000604051905081810181811067ffffffffffffffff82111715610a2c57610a2b610c78565b5b8060405250919050565b600067ffffffffffffffff821115610a5157610a50610c78565b5b601f19601f8301169050602081019050919050565b6000819050602082019050919050565b600081519050919050565b600081519050919050565b6000602082019050919050565b600082825260208201905092915050565b600082825260208201905092915050565b600082825260208201905092915050565b6000610ad782610b66565b9150610ae283610b66565b9250827fffffffffffffffffffffffffffffffffffffffffffffffffffffffffffffffff03821115610b1757610b16610c1a565b5b828201905092915050565b6000610b2d82610b46565b9050919050565b6000610b3f82610b46565b9050919050565b600073ffffffffffffffffffffffffffffffffffffffff82169050919050565b6000819050919050565b6000610b7b82610b82565b9050919050565b6000610b8d82610b94565b9050919050565b6000610b9f82610b46565b9050919050565b82818337600083830152505050565b60005b83811015610bd3578082015181840152602081019050610bb8565b83811115610be2576000848401525b50505050565b60006002820490506001821680610c0057607f821691505b60208210811415610c1457610c13610c49565b5b50919050565b7f4e487b7100000000000000000000000000000000000000000000000000000000600052601160045260246000fd5b7f4e487b7100000000000000000000000000000000000000000000000000000000600052602260045260246000fd5b7f4e487b7100000000000000000000000000000000000000000000000000000000600052604160045260246000fd5b6000601f19601f8301169050919050565b610cc181610b34565b8114610ccc57600080fd5b50565b610cd881610b66565b8114610ce357600080fd5b5056fea264697066735822122018055f22f06cf0a5b114952247186e4563adf1749028aeee61c2e7d9b353724a64736f6c63430008000033",
  "linkReferences": {},
  "deployedLinkReferences": {}
}